:020000040000FA
:100000000C9463000C9499040C9472040C94C00436
:100010000C94C0040C94C0040C948B000C948B00C2
:100020000C948B000C948B000C948B000C948B0024
:100030000C948B000C948B000C948B000C948B0014
:100040000C9428040C948B000C94F6030C94D003AD
:100050000C948B000C948B000C948B000C948B00F4
:100060000C948B000C948B000000000024002700EF
:100070002A0000000008000201000003040700003D
:1000800000000000000000000000230026002900FE
:1000900000000000250028002B00040404040404D0
:1000A0000404020202020202030303030303010227
:1000B00004081020408001020408102001020408F6
:1000C00010208405F60711241FBECFEFD8E0DEBF55
:1000D000CDBF22E0AEE4B1E001C01D92AB35B20766
:1000E000E1F711E0A0E0B1E0ECE4F3E102C005903B
:1000F0000D92AE34B107D9F710E0C2E6D0E004C0EB
:100100002197FE010E948C09C136D107C9F70E94D0
:1001100035060C9499090C9400008F929F92AF922F
:10012000BF92CF92DF92EF92FF926B017C018FB76B
:10013000F8948090970190909801A0909901B090C8
:100140009A018FBF8091380290913902DC01ED91C4
:10015000FC910084F185E02D09950097A1F42FB75B
:10016000F894409197015091980160919901709194
:100170009A012FBF481959096A097B094C155D0579
:100180006E057F05F8F2FF90EF90DF90CF90BF9063
:10019000AF909F908F900895809105018F5F80931D
:1001A000050180910501833018F081E080930501FD
:1001B0000895AF92BF92CF92DF92EF92FF920F938A
:1001C0001F93CF93DF936C017B018B01040F151FED
:1001D000EB015E01AE18BF08C017D10759F0699155
:1001E000D601ED91FC910190F081E02DC6010995B9
:1001F000892B79F7C501DF91CF911F910F91FF9066
:10020000EF90DF90CF90BF90AF900895FC01538D99
:10021000448D252F30E0842F90E0821B930B5417E0
:1002200010F0CF96089501970895FC01918D828D6D
:10023000981761F0A28DAE0FBF2FB11D5D968C9106
:10024000928D9F5F9F73928F90E008958FEF9FEF45
:100250000895FC01918D828D981731F0828DE80F01
:10026000F11D858D90E008958FEF9FEF0895FC01BB
:10027000918D228D892F90E0805C9F4F821B910988
:100280008F73992708958BE991E00E94370121E04F
:10029000892B09F420E0822F089580E090E0892BDB
:1002A00029F00E94430181110C9400000895FC0183
:1002B000A48DA80FB92FB11DA35ABF4F2C91848DC7
:1002C00090E001968F739927848FA689B7892C9324
:1002D000A089B1898C91837080648C93938D848D77
:1002E000981306C00288F389E02D80818F7D80837A
:1002F0000895EF92FF920F931F93CF93DF93EC013A
:1003000081E0888F9B8D8C8D98131AC0E889F989BC
:10031000808185FF15C09FB7F894EE89FF896083BF
:10032000E889F98980818370806480839FBF81E040
:1003300090E0DF91CF911F910F91FF90EF90089582
:10034000F62E0B8D10E00F5F1F4F0F731127E02E5D
:100350008C8D8E110CC00FB607FCFACFE889F98995
:10036000808185FFF5CFCE010E945701F1CFEB8D43
:10037000EC0FFD2FF11DE35AFF4FF0829FB7F89469
:100380000B8FEA89FB8980818062CFCFCF93DF9387
:10039000EC01888D8823B9F0AA89BB89E889F9899D
:1003A0008C9185FD03C0808186FD0DC00FB607FCD2
:1003B000F7CF8C9185FFF2CF808185FFEDCFCE0105
:1003C0000E945701E9CFDF91CF910895CF93DF933A
:1003D00090E0FC01E255FF4F249186569F4FFC01AF
:1003E00084918823C9F090E0880F991FFC01E85997
:1003F000FF4FA591B491FC01E057FF4FC591D491F7
:1004000061110DC09FB7F8948C91209582238C9335
:100410008881282328839FBFDF91CF910895623080
:1004200051F49FB7F8943C91822F809583238C934D
:10043000E8812E2BEFCF8FB7F894EC912E2B2C93D5
:100440008FBFEACF3FB7F89480918F0190919001D0
:10045000A0919101B091920126B5A89B05C02F3FB4
:1004600019F00196A11DB11D3FBFBA2FA92F982FDA
:100470008827BC01CD01620F711D811D911D42E0D5
:10048000660F771F881F991F4A95D1F70895089521
:1004900020919501309196012817390771F49091B8
:1004A000930180919401981741F0E0919301F0E05D
:1004B000E25BFE4F808190E008958FEF9FEF0895FB
:1004C0000895EF92FF920F931F93CF93DF93DC0178
:1004D0005C96ED90FC905D97E114F10479F481E075
:1004E00090E013969C938E93129790E080E0DF91BA
:1004F000CF911F910F91FF90EF9008955196ED913C
:10050000FC91529750968C915097982F90950FB7D9
:100510005E962C915E97122F127021FD6095F894D3
:100520002081112319F1282B2083E7012197F1F76E
:1005300028E0462F50E0308160FF1AC0382B30830E
:10054000E7012197F1F7BA0175956795215089F771
:10055000112381F08081892380830FBF5C968D9168
:100560009C910197F1F781E090E0C1CF2923DCCF86
:100570003923E5CF9081892BEFCF209195013091E0
:1005800096012817390761F4809194012091930115
:1005900090E0805C9F4F821B91098F73992708958B
:1005A00090E080E008952091950130919601281700
:1005B0003907B9F49091930180919401981789F0CB
:1005C000E0919301F0E0E25BFE4F80812091930186
:1005D00030E02F5F3F4F2F7333272093930190E03C
:1005E00008958FEF9FEF089590E080E00895CF93F6
:1005F000DF93FC0101900020E9F73197AF01481B20
:10060000590BBC018BE991E00E94D900EC0142E05A
:1006100050E06AE371E08BE991E00E94D9008C0F11
:100620009D1FDF91CF910895CF92DF92EF92FF92BD
:100630000F931F93CF93DF93C82ED62ED42F79011B
:10064000EDEFE80FC0E0E03120F4F0E0EA5FFE4FAC
:10065000C0816AE070E080E090E00E948D00A0918F
:100660003802B0913902ED91FC911197892B31F04C
:100670000284F385E02DCD010995EBCF0190F08147
:10068000E02D6EE7CD0109958091380290913902F5
:10069000DC01ED91FC910190F081E02D62E06C0FA6
:1006A00009958091380290913902DC01ED91FC911D
:1006B0000190F081E02D6C2D0995CC23D1F0809133
:1006C000380290913902DC01ED91FC910190F081AA
:1006D000E02D6D2D0995C23061F480913802909122
:1006E0003902DC01ED91FC910190F081E02D6D2F3C
:1006F00009958091380290913902DC01ED91FC91CD
:100700000190F081E02D6FEE0995E114F10449F0BC
:100710000115110531F0A80170E060E0C7010E94E9
:10072000920968EE73E080E090E00E948D00D0E0D6
:10073000C0E00150110966E970E080E090E00E949D
:100740008D00892BB9F08091380290913902DC013B
:10075000ED91FC910284F385E02D0995E114F104FB
:1007600051F3C017D10738F7F701EC0FFD1F808355
:100770002196E1CFDF91CF911F910F91FF90EF90E4
:10078000DF90CF9008950F931F9310E000E030E0CA
:1007900020E040E060E00E9414031F910F91089553
:1007A0001F920F920FB60F9211242F933F934F93E6
:1007B0005F936F937F938F939F93AF93BF93EF93C9
:1007C000FF938BE991E00E945701FF91EF91BF9158
:1007D000AF919F918F917F916F915F914F913F91D9
:1007E0002F910F900FBE0F901F9018951F920F9290
:1007F0000FB60F9211242F938F939F93EF93FF9334
:10080000E091AB01F091AC018081E091B101F091F8
:10081000B20182FD1BC090818091B4018F5F8F7304
:100820002091B501821741F0E091B401F0E0E55666
:10083000FE4F958F8093B401FF91EF919F918F911F
:100840002F910F900FBE0F901F9018958081F4CFBD
:100850001F920F920FB60F9211242F933F938F93F5
:100860009F93AF93BF938091970190919801A0912E
:100870009901B0919A0130918E0123E0230F2D3719
:1008800058F50196A11DB11D20938E01809397010B
:1008900090939801A0939901B0939A0180918F0150
:1008A00090919001A0919101B09192010196A11DAA
:1008B000B11D80938F0190939001A0939101B0930B
:1008C0009201BF91AF919F918F913F912F910F9086
:1008D0000FBE0F901F90189526E8230F0296A11DBA
:1008E000B11DD2CF1F920F920FB60F9211242F93EA
:1008F0003F934F935F936F937F938F939F93AF93A8
:10090000BF93EF93FF93E0910201F09103010995EA
:10091000FF91EF91BF91AF919F918F917F916F91D7
:100920005F914F913F912F910F900FBE0F901F90AD
:1009300018951F920F920FB60F9211242F933F9389
:100940004F935F936F937F938F939F93AF93BF93D7
:10095000EF93FF93E0910001F09101010995FF9160
:10096000EF91BF91AF919F918F917F916F915F9127
:100970004F913F912F910F900FBE0F901F901895A0
:100980001F920F920FB60F9211242F933F934F9304
:100990005F936F937F938F939F93AF93BF93EF93E7
:1009A000FF93E0919501F0919601309749F0A6856B
:1009B000B7858585968D91FF14C09C918923A1F4FC
:1009C000FF91EF91BF91AF919F918F917F916F9127
:1009D0005F914F913F912F910F900FBE0F901F90FD
:1009E00018959C91892361F7A389B4899C91858985
:1009F000809589238C93868997890197F1F7608D7B
:100A0000718DA685B785558538E020E0CB0101972B
:100A1000F1F7822F90E095958795282F4C914523EB
:100A200009F02068315091F7868D81FD20958091E5
:100A3000940190E001968F739927309193013817B4
:100A400099F0A0919401B0E0A25BBE4F2C938093EB
:100A50009401828D938D0197F1F7A389B4898C91CC
:100A60009589892B8C93ACCF868D8160868FF1CF51
:100A700090E0FC01EE58FF4F2491FC01E255FF4F3E
:100A80003491FC01E656FF4FE491EE23C9F0222396
:100A900039F0233001F1A8F4213019F1223029F185
:100AA000F0E0EE0FFF1FE057FF4FA591B4918FB715
:100AB000F894EC91611126C030953E233C938FBF92
:100AC00008952730A9F02830C9F0243049F78091E3
:100AD00080008F7D03C0809180008F77809380009D
:100AE000DFCF84B58F7784BDDBCF84B58F7DFBCF1F
:100AF0008091B0008F778093B000D2CF8091B0000A
:100B00008F7DF9CF3E2BDACF10929E0110929D017E
:100B100088EE93E0A0E0B0E080939F019093A00165
:100B2000A093A101B093A2012AE131E030939C018E
:100B300020939B0125EC30E03093A8012093A7017E
:100B400024EC30E03093AA012093A90120EC30E09E
:100B50003093AC012093AB0121EC30E03093AE0137
:100B60002093AD0122EC30E03093B0012093AF012F
:100B700026EC30E03093B2012093B1011092B40121
:100B80001092B5011092B6011092B70110923D0279
:100B900010923C0280933E0290933F02A093400249
:100BA000B09341028CE291E090933B0280933A0231
:100BB000109251021092500210925302109252025F
:100BC000109255021092540210925702109256023F
:100BD000609158026E7F6D7F6093580266956170D8
:100BE00081E0682789E00E94380561E089E00E9481
:100BF000E601E7EBF0E0E491E0934A02E3EAF0E09B
:100C0000E491F0E0EE0FFF1FE057FF4F85919491C4
:100C100090934C0280934B0260E088E00E94E601D2
:100C20008091580281FD04C061E088E00E9438058F
:100C300088E080934602E6EBF0E0E491E09347021F
:100C4000E2EAF0E0E491F0E0EE0FFF1FEA57FF4F19
:100C50008591949190934902809348028AE392E0AF
:100C600090933902809338020895CF93DF9300D098
:100C700000D01F92CDB7DEB7789484B5826084BD72
:100C800084B5816084BD85B5826085BD85B5816090
:100C900085BD80916E00816080936E00109281000E
:100CA00080918100826080938100809181008160C9
:100CB000809381008091800081608093800080918A
:100CC000B10084608093B1008091B0008160809316
:100CD000B00080917A00846080937A0080917A00DD
:100CE000826080937A0080917A00816080937A009C
:100CF00080917A00806880937A001092C10062E04F
:100D000082E00E94E6018CEC90E0909301018093D8
:100D10000001809169008C7F826080936900E89A6D
:100D2000E091AB01F091AC0182E08083E091A701FA
:100D3000F091A8011082E091A901F091AA018FEC35
:100D400080831092B301E091AF01F091B00186E091
:100D50008083E091AD01F091AE018081806180835C
:100D6000E091AD01F091AE01808188608083E091D7
:100D7000AD01F091AE01808180688083E091AD018A
:100D8000F091AE0180818F7D808310925502109288
:100D90005402109253021092520210925102109279
:100DA00050028DE991E09093570280935602909102
:100DB0004602963108F047C02DEB30E030935102E7
:100DC000209350022BE931E03093530220935202DA
:100DD0002CE231E0309355022093540220916800B8
:100DE00084E0983048F031E09E3008F430E081E053
:100DF00001C0880F3A95EAF7822B809368002DE6B0
:100E000030E0983050F02BE630E09E3030F02CE6A9
:100E100030E0963110F030E020E030934E02209325
:100E20004D02292F30E0983008F0CCC081E001C09D
:100E3000880F9A95EAF780934F028091560290911D
:100E400057020197F1F78091540290915502892B36
:100E500049F1E0919501F091960122E0EA33F20721
:100E600009F1309739F0A389B4899C9185898095DF
:100E700089238C93809158028E7F80935802109220
:100E80009401109293018AE392E0909396018093EB
:100E90009501E0914D02F0914E02808190914F02B8
:100EA000892B80838CE00E94C3030E9422026B0185
:100EB0007C0124EF822E99249394A12CB12C0E94C2
:100EC00022026C197D098E099F09683E73408105D5
:100ED0009105A8F381E0881A9108A108B10828EECD
:100EE000C20E23E0D21EE11CF11C81149104A10466
:100EF000B10429F710E000E030E020E040E067E0D6
:100F000086E00E94140330E020E040E064E081E1EC
:100F10000E9414038DE00E94C30390E0C92E90E06C
:100F2000D92E84E0E82EF12C05E010E09E012F5F21
:100F30003F4F40E060E082E40E94140340E150E053
:100F400070E060E0CE0101960E941208662379F0FD
:100F5000F60EEA94E110E8CF84E0F81619F028E0E4
:100F6000F212DFCF8F2D86958695813051F040911A
:100F7000050110E000E030E020E060E083E00E9446
:100F800014038091050190910401981739F08EE0C7
:100F90000E94C303809105018093040180910501A3
:100FA0008130E9F48DE391E00E94F702C114D1048D
:100FB00009F4B7CF0E944301882309F4B2CF0E94FD
:100FC0000000AFCF9E3040F42850310981E001C0CD
:100FD000880F2A95EAF72FCF2E503109F7CF80914D
:100FE0000501823019F785E491E0DECF8CE291E0D3
:100FF00090933B0280933A028091950190919601E3
:101000008A53924071F4E0914D02F0914E0290812A
:1010100080914F02809589238083109296011092CF
:1010200095010895B0E0A0E0E8E1F8E00C944709EC
:101030005C016B017A016115710519F0FB01918367
:101040008083E114F10449F0C7010297839728F0E7
:1010500060E070E0CB019CC05E01E5012196F501E6
:101060001081812F90E00E94FD08892BA9F71D3285
:1010700009F056C02196F501118101E0E114F10457
:1010800009F4AEC0F0E1EF16F10409F08EC01033A0
:1010900041F488818F7D883509F083C019812296BB
:1010A0000260E0E1EE2EF12C88248A94982CA82C82
:1010B000FFE0BF2E20E060E070E0CB0127010F2CA5
:1010C000000C66087708FE0150ED352E310E39E030
:1010D000331538F43FEB310F3A31A0F549EC342E9B
:1010E000310E3E141F04BCF52F3FB9F0861697064B
:1010F000A806B90670F1A30192010E940909232DE7
:1011000030E050E040E0620F731F841F951F6217AC
:10111000730784079507E8F021E021961081D3CF6B
:101120001B3221F4E5012296F501118100E0A6CFE2
:1011300078E0E72EF12C88248A94982CA82C6FE173
:10114000B62EB8CF3FE9310F3A3128F439EA332EC1
:10115000C7CF2FEFE2CFC114D10431F02223E9F041
:101160002197F601D183C08300FF07C09095809539
:10117000709561957F4F8F4F9F4F2F3F49F482E2CB
:1011800090E090935A02809359026FEF7FEFCB016A
:10119000CDB7DEB7E1E10C94630901FFE5CF2297FB
:1011A000E0CF10E3E114F10419F23AE0E316F104A0
:1011B000E9F080E1E816F10409F473CFE8E0EE16F7
:1011C000F10409F4B8CF6FEF7FEFCB0197010F2C3B
:1011D000000C440B550B0E94190949015A016ACFB2
:1011E000103309F456CF9AE0E92EF12C89E9882EC4
:1011F000982CA82C89E1B82E5DCF91110C9406098A
:10120000803219F089508550C8F7089599278827AA
:101210000895DB018F939F930E943B09BF91AF918B
:10122000A29F800D911DA39F900DB29F900D112440
:101230000895A1E21A2EAA1BBB1BFD010DC0AA1F17
:10124000BB1FEE1FFF1FA217B307E407F50720F02F
:10125000A21BB30BE40BF50B661F771F881F991FAA
:101260001A9469F760957095809590959B01AC01F3
:10127000BD01CF0108950E947D09A59F900DB49FE7
:10128000900DA49F800D911D112408952F923F92DF
:101290004F925F926F927F928F929F92AF92BF9286
:1012A000CF92DF92EF92FF920F931F93CF93DF9332
:1012B000CDB7DEB7CA1BDB0B0FB6F894DEBF0FBE8F
:1012C000CDBF09942A88398848885F846E847D84DC
:1012D0008C849B84AA84B984C884DF80EE80FD80DE
:1012E0000C811B81AA81B981CE0FD11D0FB6F89454
:1012F000DEBF0FBECDBFED010895A29FB001B39F29
:10130000C001A39F700D811D1124911DB29F700D0E
:10131000811D1124911D0895EE0FFF1F0590F4917A
:10132000E02D0994DC0101C06D9341505040E0F77D
:10133000089510E0C2E6D0E004C0FE010E948C09CE
:101340002196C336D107C9F7F894FFCF4702470269
:101350000101020000010100010000000000010085
:101360000102000000007901D9000601C601370121
:1013700015012901000000006102D900F402600299
:10138000BD02D30248020D0A004D75736963203116
:0A139000004D757369632032000000
:107800000C94343C0C94513C0C94513C0C94513CE1
:107810000C94513C0C94513C0C94513C0C94513CB4
:107820000C94513C0C94513C0C94513C0C94513CA4
:107830000C94513C0C94513C0C94513C0C94513C94
:107840000C94513C0C94513C0C94513C0C94513C84
:107850000C94513C0C94513C0C94513C0C94513C74
:107860000C94513C0C94513C11241FBECFEFD8E036
:10787000DEBFCDBF11E0A0E0B1E0ECE9FFE702C060
:1078800005900D92A230B107D9F712E0A2E0B1E065
:1078900001C01D92AD30B107E1F70E942D3D0C945F
:1078A000CC3F0C94003C982F959595959595959582
:1078B000905D8F708A307CF0282F295A8091C0000B
:1078C00085FFFCCF9093C6008091C00085FFFCCF60
:1078D0002093C6000895282F205DF0CF982F809127
:1078E000C00085FFFCCF9093C6000895EF92FF92F1
:1078F0000F931F93EE24FF2487018091C00087FD22
:1079000017C00894E11CF11C011D111D81E4E8164B
:1079100082E4F8068FE0080780E0180770F3E09132
:107920000401F091050109958091C00087FFE9CF1E
:107930008091C6001F910F91FF90EF9008950E94D3
:10794000763C982F8091C00085FFFCCF9093C600B5
:1079500091362CF490330CF09053892F089597555D
:10796000892F08951F930E949F3C182F0E949F3CCF
:107970001295107F810F1F9108951F93182F882350
:1079800021F00E94763C1150E1F71F9108951F935A
:10799000182F0E94763C803249F0809103018F5F5E
:1079A000809303018530C1F01F9108958091C0003C
:1079B00085FFFCCF84E18093C6008091C00085FFE5
:1079C000FCCF1093C6008091C00085FFFCCF80E102
:1079D0008093C6001F910895E0910401F091050184
:1079E00009951F9108950E94763C803241F0809164
:1079F00003018F5F80930301853081F008958091AA
:107A0000C00085FFFCCF84E18093C6008091C00058
:107A100085FFFCCF80E18093C6000895E0910401CA
:107A2000F09105010995089540E951E08823A1F0FE
:107A30002D9A28EE33E0FA013197F1F721503040CA
:107A4000D1F72D9828EE33E0FA013197F1F7215064
:107A50003040D1F7815061F708953F924F925F9285
:107A60006F927F928F929F92AF92BF92CF92DF924E
:107A7000EF92FF920F931F93CF93DF93000080E16B
:107A80008093C4001092C50088E18093C10086E015
:107A90008093C2005098589A259A81E00E94143D24
:107AA00024E1F22E9EE1E92E85E9D82E0FE0C02ECA
:107AB00010E1B12EAA24A394B1E49B2EA6E58A2E50
:107AC000F2E57F2EE0E26E2E79E4572E63E5462E36
:107AD00050E5352E0E94763C8033B1F18133B9F107
:107AE000803409F46FC0813409F476C0823409F41B
:107AF00085C0853409F488C0803531F1823521F1A3
:107B0000813511F1853509F485C0863509F48DC0BC
:107B1000843609F496C0843709F403C1853709F423
:107B200072C1863709F466C0809103018F5F80932C
:107B30000301853079F6E0910401F0910501099582
:107B40000E94763C803351F60E94F33CC3CF0E94E2
:107B5000763C803249F78091C00085FFFCCFF092DF
:107B6000C6008091C00085FFFCCF9092C600809136
:107B7000C00085FFFCCF8092C6008091C00085FFC9
:107B8000FCCF7092C6008091C00085FFFCCF609250
:107B9000C6008091C00085FFFCCF5092C600809146
:107BA000C00085FFFCCF4092C6008091C00085FFD9
:107BB000FCCF3092C6008091C00085FFFCCFB09210
:107BC000C60088CF0E94763C863808F4BDCF0E945C
:107BD000763C0E94F33C7ECF0E94763C803809F4CC
:107BE0009CC0813809F40BC1823809F43CC1883942
:107BF00009F48FC080E00E94C73C6CCF84E10E94F2
:107C0000BD3C0E94F33C66CF85E00E94BD3C0E94D3
:107C1000F33C60CF0E94763C809306010E94763C44
:107C2000809307010E94F33C55CF0E94763C80333D
:107C300009F41DC183E00E94BD3C80E00E94C73C66
:107C400049CF0E94763C809309020E94763C809343
:107C5000080280910C028E7F80930C020E94763C79
:107C6000853409F415C18091080290910902892B8D
:107C700089F000E010E00E94763CF801E85FFE4FDA
:107C800080830F5F1F4F80910802909109020817AF
:107C9000190788F30E94763C803209F045CF809125
:107CA0000C0280FF01C16091060170910701660F0F
:107CB000771F7093070160930601A0910802B091AD
:107CC00009021097C9F0E8E0F1E09B01AD014E0F09
:107CD0005F1FF999FECF32BD21BD819180BDFA9A17
:107CE000F99A2F5F3F4FE417F50799F76A0F7B1F4B
:107CF00070930701609306018091C00085FFFCCF5F
:107D0000F092C6008091C00085FFFCCFB092C60003
:107D1000E1CE83E00E94C73CDDCE82E00E94C73CFA
:107D2000D9CE0E94763C809309020E94763C8093D3
:107D300008028091060190910701880F991F909386
:107D40000701809306010E94763C853409F4A6C0A1
:107D500080910C028E7F80930C020E94763C8032D0
:107D600009F0B8CE8091C00085FFFCCFF092C6002C
:107D7000609108027091090261157105B9F140E046
:107D800050E080910C02A82FA170B82FB27011C0E2
:107D9000BB2309F45CC0E0910601F0910701319624
:107DA000F0930701E09306014F5F5F4F46175707B7
:107DB000E8F4AA2369F3F999FECF209106013091E6
:107DC000070132BD21BDF89A90B58091C00085FFB2
:107DD000FCCF9093C6002F5F3F4F30930701209355
:107DE00006014F5F5F4F4617570718F38091C00099
:107DF00085FDE5CE8091C00085FFF8CFE0CE81E023
:107E00000E94C73C67CE0E94763C803209F08CCE3F
:107E10008091C00085FFFCCFF092C6008091C00029
:107E200085FFFCCFE092C6008091C00085FFFCCFAB
:107E3000D092C6008091C00085FFFCCFC092C600E2
:107E40008091C00085FFFCCFB092C60043CEE09188
:107E50000601F091070194918091C00085FFFCCF4D
:107E60009093C6009CCF80E10E94C73C33CE0E9415
:107E7000763C0E94763C182F0E94763C112309F430
:107E800083C0113009F484C08FE00E94C73C22CE29
:107E900080910C02816080930C02E5CE80910C02EF
:107EA000816080930C0259CF809107018823880F4D
:107EB000880B8A2180930B02809106019091070123
:107EC000880F991F90930701809306018091080203
:107ED00080FF09C080910802909109020196909359
:107EE000090280930802F894F999FECF1127E091D6
:107EF0000601F0910701C8E0D1E08091080290915D
:107F00000902103091F40091570001700130D9F34B
:107F100003E000935700E89500915700017001308D
:107F2000D9F301E100935700E89509901990009169
:107F3000570001700130D9F301E000935700E89534
:107F40001395103498F011270091570001700130FB
:107F5000D9F305E000935700E895009157000170B0
:107F60000130D9F301E100935700E895329602976A
:107F700009F0C7CF103011F00296E5CF112480919F
:107F8000C00085FFB9CEBCCE8EE10E94C73CA2CD19
:0E7F900085E90E94C73C9ECDF894FFCF80008B
:00000001FF
